{
  "_format": "hh-sol-artifact-1",
  "contractName": "TokenExchange",
  "sourceName": "contracts/exchange.sol",
  "abi": [
    {
      "inputs": [],
      "stateMutability": "nonpayable",
      "type": "constructor"
    },
    {
      "anonymous": false,
      "inputs": [
        {
          "indexed": true,
          "internalType": "address",
          "name": "previousOwner",
          "type": "address"
        },
        {
          "indexed": true,
          "internalType": "address",
          "name": "newOwner",
          "type": "address"
        }
      ],
      "name": "OwnershipTransferred",
      "type": "event"
    },
    {
      "inputs": [
        {
          "internalType": "uint256",
          "name": "max_exchange_rate",
          "type": "uint256"
        },
        {
          "internalType": "uint256",
          "name": "min_exchange_rate",
          "type": "uint256"
        }
      ],
      "name": "addLiquidity",
      "outputs": [],
      "stateMutability": "payable",
      "type": "function"
    },
    {
      "inputs": [
        {
          "internalType": "uint256",
          "name": "amountTokens",
          "type": "uint256"
        }
      ],
      "name": "createPool",
      "outputs": [],
      "stateMutability": "payable",
      "type": "function"
    },
    {
      "inputs": [],
      "name": "exchange_name",
      "outputs": [
        {
          "internalType": "string",
          "name": "",
          "type": "string"
        }
      ],
      "stateMutability": "view",
      "type": "function"
    },
    {
      "inputs": [],
      "name": "getSwapFee",
      "outputs": [
        {
          "internalType": "uint256",
          "name": "",
          "type": "uint256"
        },
        {
          "internalType": "uint256",
          "name": "",
          "type": "uint256"
        }
      ],
      "stateMutability": "view",
      "type": "function"
    },
    {
      "inputs": [],
      "name": "owner",
      "outputs": [
        {
          "internalType": "address",
          "name": "",
          "type": "address"
        }
      ],
      "stateMutability": "view",
      "type": "function"
    },
    {
      "inputs": [
        {
          "internalType": "uint256",
          "name": "max_exchange_rate",
          "type": "uint256"
        },
        {
          "internalType": "uint256",
          "name": "min_exchange_rate",
          "type": "uint256"
        }
      ],
      "name": "removeAllLiquidity",
      "outputs": [],
      "stateMutability": "payable",
      "type": "function"
    },
    {
      "inputs": [
        {
          "internalType": "uint256",
          "name": "amountETH",
          "type": "uint256"
        },
        {
          "internalType": "uint256",
          "name": "max_exchange_rate",
          "type": "uint256"
        },
        {
          "internalType": "uint256",
          "name": "min_exchange_rate",
          "type": "uint256"
        }
      ],
      "name": "removeLiquidity",
      "outputs": [],
      "stateMutability": "payable",
      "type": "function"
    },
    {
      "inputs": [],
      "name": "renounceOwnership",
      "outputs": [],
      "stateMutability": "nonpayable",
      "type": "function"
    },
    {
      "inputs": [
        {
          "internalType": "uint256",
          "name": "max_exchange_rate",
          "type": "uint256"
        }
      ],
      "name": "swapETHForTokens",
      "outputs": [],
      "stateMutability": "payable",
      "type": "function"
    },
    {
      "inputs": [
        {
          "internalType": "uint256",
          "name": "amountTokens",
          "type": "uint256"
        },
        {
          "internalType": "uint256",
          "name": "max_exchange_rate",
          "type": "uint256"
        }
      ],
      "name": "swapTokensForETH",
      "outputs": [],
      "stateMutability": "payable",
      "type": "function"
    },
    {
      "inputs": [],
      "name": "token",
      "outputs": [
        {
          "internalType": "contract Token",
          "name": "",
          "type": "address"
        }
      ],
      "stateMutability": "view",
      "type": "function"
    },
    {
      "inputs": [
        {
          "internalType": "address",
          "name": "newOwner",
          "type": "address"
        }
      ],
      "name": "transferOwnership",
      "outputs": [],
      "stateMutability": "nonpayable",
      "type": "function"
    }
  ],
  "bytecode": "0x608060405260405180602001604052806000815250600190816200002491906200046b565b50735fbdb2315678afecb367f032d93f642f64180aa3600260006101000a81548173ffffffffffffffffffffffffffffffffffffffff021916908373ffffffffffffffffffffffffffffffffffffffff160217905550600260009054906101000a900473ffffffffffffffffffffffffffffffffffffffff16600360006101000a81548173ffffffffffffffffffffffffffffffffffffffff021916908373ffffffffffffffffffffffffffffffffffffffff1602179055506000600455600060055560006008556000600955348015620000fe57600080fd5b506200011f620001136200012560201b60201c565b6200012d60201b60201c565b62000552565b600033905090565b60008060009054906101000a900473ffffffffffffffffffffffffffffffffffffffff169050816000806101000a81548173ffffffffffffffffffffffffffffffffffffffff021916908373ffffffffffffffffffffffffffffffffffffffff1602179055508173ffffffffffffffffffffffffffffffffffffffff168173ffffffffffffffffffffffffffffffffffffffff167f8be0079c531659141344cd1fd0a4f28419497f9722a3daafe3b4186f6b6457e060405160405180910390a35050565b600081519050919050565b7f4e487b7100000000000000000000000000000000000000000000000000000000600052604160045260246000fd5b7f4e487b7100000000000000000000000000000000000000000000000000000000600052602260045260246000fd5b600060028204905060018216806200027357607f821691505b6020821081036200028957620002886200022b565b5b50919050565b60008190508160005260206000209050919050565b60006020601f8301049050919050565b600082821b905092915050565b600060088302620002f37fffffffffffffffffffffffffffffffffffffffffffffffffffffffffffffffff82620002b4565b620002ff8683620002b4565b95508019841693508086168417925050509392505050565b6000819050919050565b6000819050919050565b60006200034c62000346620003408462000317565b62000321565b62000317565b9050919050565b6000819050919050565b62000368836200032b565b62000380620003778262000353565b848454620002c1565b825550505050565b600090565b6200039762000388565b620003a48184846200035d565b505050565b5b81811015620003cc57620003c06000826200038d565b600181019050620003aa565b5050565b601f8211156200041b57620003e5816200028f565b620003f084620002a4565b8101602085101562000400578190505b620004186200040f85620002a4565b830182620003a9565b50505b505050565b600082821c905092915050565b6000620004406000198460080262000420565b1980831691505092915050565b60006200045b83836200042d565b9150826002028217905092915050565b6200047682620001f1565b67ffffffffffffffff811115620004925762000491620001fc565b5b6200049e82546200025a565b620004ab828285620003d0565b600060209050601f831160018114620004e35760008415620004ce578287015190505b620004da85826200044d565b8655506200054a565b601f198416620004f3866200028f565b60005b828110156200051d57848901518255600182019150602085019450602081019050620004f6565b868310156200053d578489015162000539601f8916826200042d565b8355505b6001600288020188555050505b505050505050565b61282c80620005626000396000f3fe6080604052600436106100a75760003560e01c80639cd441da116100645780639cd441da1461015e578063a22280a61461017a578063d4cadf6814610196578063f2fde38b146101c2578063f694f7d1146101eb578063fc0c546a14610216576100a7565b80632eab2841146100ac57806358ad6de4146100c8578063715018a6146100e45780638259e6a0146100fb578063857620e1146101175780638da5cb5b14610133575b600080fd5b6100c660048036038101906100c19190611c68565b610241565b005b6100e260048036038101906100dd9190611c95565b610349565b005b3480156100f057600080fd5b506100f9610827565b005b61011560048036038101906101109190611c68565b61083b565b005b610131600480360381019061012c9190611cd5565b610bdb565b005b34801561013f57600080fd5b50610148610fe8565b6040516101559190611d69565b60405180910390f35b61017860048036038101906101739190611c95565b611011565b005b610194600480360381019061018f9190611c95565b6116ef565b005b3480156101a257600080fd5b506101ab611799565b6040516101b9929190611d93565b60405180910390f35b3480156101ce57600080fd5b506101e960048036038101906101e49190611de8565b6117aa565b005b3480156101f757600080fd5b5061020061182d565b60405161020d9190611ea5565b60405180910390f35b34801561022257600080fd5b5061022b6118bb565b6040516102389190611f26565b60405180910390f35b600080349050806005546102559190611f70565b600a546102629190611fd3565b60045461026f9190612004565b915080600560008282546102839190611f70565b92505081905550816004600082825461029c9190612004565b92505081905550600360009054906101000a900473ffffffffffffffffffffffffffffffffffffffff1673ffffffffffffffffffffffffffffffffffffffff1663a9059cbb33846040518363ffffffff1660e01b8152600401610300929190612038565b6020604051808303816000875af115801561031f573d6000803e3d6000fd5b505050506040513d601f19601f820116820180604052508101906103439190612099565b50505050565b6000612710600660003373ffffffffffffffffffffffffffffffffffffffff1673ffffffffffffffffffffffffffffffffffffffff1681526020019081526020016000205460055461039b91906120c6565b6103a59190611fd3565b90506000612710600660003373ffffffffffffffffffffffffffffffffffffffff1673ffffffffffffffffffffffffffffffffffffffff168152602001908152602001600020546004546103f991906120c6565b6104039190611fd3565b90506000600660003373ffffffffffffffffffffffffffffffffffffffff1673ffffffffffffffffffffffffffffffffffffffff168152602001908152602001600020546127106104549190612004565b905060005b600780549050811015610602573373ffffffffffffffffffffffffffffffffffffffff166007828154811061049157610490612108565b5b9060005260206000200160009054906101000a900473ffffffffffffffffffffffffffffffffffffffff1673ffffffffffffffffffffffffffffffffffffffff16146105ef578161271060066000600785815481106104f3576104f2612108565b5b9060005260206000200160009054906101000a900473ffffffffffffffffffffffffffffffffffffffff1673ffffffffffffffffffffffffffffffffffffffff1673ffffffffffffffffffffffffffffffffffffffff1681526020019081526020016000205461056391906120c6565b61056d9190611fd3565b600660006007848154811061058557610584612108565b5b9060005260206000200160009054906101000a900473ffffffffffffffffffffffffffffffffffffffff1673ffffffffffffffffffffffffffffffffffffffff1673ffffffffffffffffffffffffffffffffffffffff168152602001908152602001600020819055505b80806105fa90612137565b915050610459565b503373ffffffffffffffffffffffffffffffffffffffff166108fc849081150290604051600060405180830381858888f19350505050158015610649573d6000803e3d6000fd5b50600360009054906101000a900473ffffffffffffffffffffffffffffffffffffffff1673ffffffffffffffffffffffffffffffffffffffff1663a9059cbb33846040518363ffffffff1660e01b81526004016106a7929190612038565b6020604051808303816000875af11580156106c6573d6000803e3d6000fd5b505050506040513d601f19601f820116820180604052508101906106ea9190612099565b5082600560008282546106fd9190612004565b9250508190555081600460008282546107169190612004565b9250508190555060045460055461072d91906120c6565b600a819055506000600660003373ffffffffffffffffffffffffffffffffffffffff1673ffffffffffffffffffffffffffffffffffffffff1681526020019081526020016000208190555060005b60078054905081101561081e573373ffffffffffffffffffffffffffffffffffffffff16600782815481106107b3576107b2612108565b5b9060005260206000200160009054906101000a900473ffffffffffffffffffffffffffffffffffffffff1673ffffffffffffffffffffffffffffffffffffffff160361080b57610802816118e1565b50505050610823565b808061081690612137565b91505061077b565b505050505b5050565b61082f611a1e565b6108396000611a9c565b565b610843611a1e565b6108826040518060400160405280600c81526020017f616d6f756e74546f6b656e73000000000000000000000000000000000000000081525082611b60565b6000600454146108c7576040517f08c379a00000000000000000000000000000000000000000000000000000000081526004016108be906121cb565b60405180910390fd5b60006005541461090c576040517f08c379a000000000000000000000000000000000000000000000000000000000815260040161090390612237565b60405180910390fd5b6000341161094f576040517f08c379a0000000000000000000000000000000000000000000000000000000008152600401610946906122a3565b60405180910390fd5b6000600360009054906101000a900473ffffffffffffffffffffffffffffffffffffffff1673ffffffffffffffffffffffffffffffffffffffff166370a08231336040518263ffffffff1660e01b81526004016109ac9190611d69565b602060405180830381865afa1580156109c9573d6000803e3d6000fd5b505050506040513d601f19601f820116820180604052508101906109ed91906122d8565b905080821115610a32576040517f08c379a0000000000000000000000000000000000000000000000000000000008152600401610a2990612377565b60405180910390fd5b60008211610a75576040517f08c379a0000000000000000000000000000000000000000000000000000000008152600401610a6c906123e3565b60405180910390fd5b600360009054906101000a900473ffffffffffffffffffffffffffffffffffffffff1673ffffffffffffffffffffffffffffffffffffffff166323b872dd3330856040518463ffffffff1660e01b8152600401610ad493929190612403565b6020604051808303816000875af1158015610af3573d6000803e3d6000fd5b505050506040513d601f19601f82011682018060405250810190610b179190612099565b50600360009054906101000a900473ffffffffffffffffffffffffffffffffffffffff1673ffffffffffffffffffffffffffffffffffffffff166370a08231306040518263ffffffff1660e01b8152600401610b739190611d69565b602060405180830381865afa158015610b90573d6000803e3d6000fd5b505050506040513d601f19601f82011682018060405250810190610bb491906122d8565b60048190555034600581905550600554600454610bd191906120c6565b600a819055505050565b600060045460055485610bee91906120c6565b610bf89190611fd3565b9050600060055461271086610c0d91906120c6565b610c179190611fd3565b905080600660003373ffffffffffffffffffffffffffffffffffffffff1673ffffffffffffffffffffffffffffffffffffffff1681526020019081526020016000206000828254610c689190612004565b925050819055506000600660003373ffffffffffffffffffffffffffffffffffffffff1673ffffffffffffffffffffffffffffffffffffffff1681526020019081526020016000205411610cf1576040517f08c379a0000000000000000000000000000000000000000000000000000000008152600401610ce890612486565b60405180910390fd5b600081612710610d019190612004565b905060005b600780549050811015610eaf573373ffffffffffffffffffffffffffffffffffffffff1660078281548110610d3e57610d3d612108565b5b9060005260206000200160009054906101000a900473ffffffffffffffffffffffffffffffffffffffff1673ffffffffffffffffffffffffffffffffffffffff1614610e9c57816127106006600060078581548110610da057610d9f612108565b5b9060005260206000200160009054906101000a900473ffffffffffffffffffffffffffffffffffffffff1673ffffffffffffffffffffffffffffffffffffffff1673ffffffffffffffffffffffffffffffffffffffff16815260200190815260200160002054610e1091906120c6565b610e1a9190611fd3565b6006600060078481548110610e3257610e31612108565b5b9060005260206000200160009054906101000a900473ffffffffffffffffffffffffffffffffffffffff1673ffffffffffffffffffffffffffffffffffffffff1673ffffffffffffffffffffffffffffffffffffffff168152602001908152602001600020819055505b8080610ea790612137565b915050610d06565b503373ffffffffffffffffffffffffffffffffffffffff166108fc879081150290604051600060405180830381858888f19350505050158015610ef6573d6000803e3d6000fd5b50600360009054906101000a900473ffffffffffffffffffffffffffffffffffffffff1673ffffffffffffffffffffffffffffffffffffffff1663a9059cbb33856040518363ffffffff1660e01b8152600401610f54929190612038565b6020604051808303816000875af1158015610f73573d6000803e3d6000fd5b505050506040513d601f19601f82011682018060405250810190610f979190612099565b508560056000828254610faa9190612004565b925050819055508260046000828254610fc39190612004565b92505081905550600454600554610fda91906120c6565b600a81905550505050505050565b60008060009054906101000a900473ffffffffffffffffffffffffffffffffffffffff16905090565b6000803491506004546005548361102891906120c6565b6110329190611fd3565b90503373ffffffffffffffffffffffffffffffffffffffff166108fc839081150290604051600060405180830381858888f1935050505015801561107a573d6000803e3d6000fd5b50600360009054906101000a900473ffffffffffffffffffffffffffffffffffffffff1673ffffffffffffffffffffffffffffffffffffffff1663a9059cbb33836040518363ffffffff1660e01b81526004016110d8929190612038565b6020604051808303816000875af11580156110f7573d6000803e3d6000fd5b505050506040513d601f19601f8201168201806040525081019061111b9190612099565b50816005600082825461112e9190611f70565b9250508190555080600460008282546111479190611f70565b9250508190555060045460055461115e91906120c6565b600a8190555060006005548361271061117791906120c6565b6111819190611fd3565b905060006001905060005b60078054905081101561147a573373ffffffffffffffffffffffffffffffffffffffff16600782815481106111c4576111c3612108565b5b9060005260206000200160009054906101000a900473ffffffffffffffffffffffffffffffffffffffff1673ffffffffffffffffffffffffffffffffffffffff1603611342576000915082600554866005546112209190612004565b600660006007868154811061123857611237612108565b5b9060005260206000200160009054906101000a900473ffffffffffffffffffffffffffffffffffffffff1673ffffffffffffffffffffffffffffffffffffffff1673ffffffffffffffffffffffffffffffffffffffff168152602001908152602001600020546112a891906120c6565b6112b29190611fd3565b6112bc9190611f70565b60066000600784815481106112d4576112d3612108565b5b9060005260206000200160009054906101000a900473ffffffffffffffffffffffffffffffffffffffff1673ffffffffffffffffffffffffffffffffffffffff1673ffffffffffffffffffffffffffffffffffffffff16815260200190815260200160002081905550611467565b600554856005546113539190612004565b600660006007858154811061136b5761136a612108565b5b9060005260206000200160009054906101000a900473ffffffffffffffffffffffffffffffffffffffff1673ffffffffffffffffffffffffffffffffffffffff1673ffffffffffffffffffffffffffffffffffffffff168152602001908152602001600020546113db91906120c6565b6113e59190611fd3565b60066000600784815481106113fd576113fc612108565b5b9060005260206000200160009054906101000a900473ffffffffffffffffffffffffffffffffffffffff1673ffffffffffffffffffffffffffffffffffffffff1673ffffffffffffffffffffffffffffffffffffffff168152602001908152602001600020819055505b808061147290612137565b91505061118c565b508015611529576007339080600181540180825580915050600190039060005260206000200160009091909190916101000a81548173ffffffffffffffffffffffffffffffffffffffff021916908373ffffffffffffffffffffffffffffffffffffffff16021790555081600660003373ffffffffffffffffffffffffffffffffffffffff1673ffffffffffffffffffffffffffffffffffffffff168152602001908152602001600020819055505b82600360009054906101000a900473ffffffffffffffffffffffffffffffffffffffff1673ffffffffffffffffffffffffffffffffffffffff166370a08231336040518263ffffffff1660e01b81526004016115859190611d69565b602060405180830381865afa1580156115a2573d6000803e3d6000fd5b505050506040513d601f19601f820116820180604052508101906115c691906122d8565b1015611607576040517f08c379a00000000000000000000000000000000000000000000000000000000081526004016115fe906124f2565b60405180910390fd5b82600360009054906101000a900473ffffffffffffffffffffffffffffffffffffffff1673ffffffffffffffffffffffffffffffffffffffff1663dd62ed3e33306040518363ffffffff1660e01b8152600401611665929190612512565b602060405180830381865afa158015611682573d6000803e3d6000fd5b505050506040513d601f19601f820116820180604052508101906116a691906122d8565b10156116e7576040517f08c379a00000000000000000000000000000000000000000000000000000000081526004016116de90612587565b60405180910390fd5b505050505050565b6000826004546116ff9190611f70565b600a5461170c9190611fd3565b6005546117199190612004565b9050806005600082825461172d9190612004565b9250508190555082600460008282546117469190611f70565b925050819055503373ffffffffffffffffffffffffffffffffffffffff166108fc829081150290604051600060405180830381858888f19350505050158015611793573d6000803e3d6000fd5b50505050565b600080600854600954915091509091565b6117b2611a1e565b600073ffffffffffffffffffffffffffffffffffffffff168173ffffffffffffffffffffffffffffffffffffffff1603611821576040517f08c379a000000000000000000000000000000000000000000000000000000000815260040161181890612619565b60405180910390fd5b61182a81611a9c565b50565b6001805461183a90612668565b80601f016020809104026020016040519081016040528092919081815260200182805461186690612668565b80156118b35780601f10611888576101008083540402835291602001916118b3565b820191906000526020600020905b81548152906001019060200180831161189657829003601f168201915b505050505081565b600360009054906101000a900473ffffffffffffffffffffffffffffffffffffffff1681565b6007805490508110611928576040517f08c379a000000000000000000000000000000000000000000000000000000000815260040161191f9061270b565b60405180910390fd5b6007600160078054905061193c9190612004565b8154811061194d5761194c612108565b5b9060005260206000200160009054906101000a900473ffffffffffffffffffffffffffffffffffffffff166007828154811061198c5761198b612108565b5b9060005260206000200160006101000a81548173ffffffffffffffffffffffffffffffffffffffff021916908373ffffffffffffffffffffffffffffffffffffffff16021790555060078054806119e6576119e561272b565b5b6001900381819060005260206000200160006101000a81549073ffffffffffffffffffffffffffffffffffffffff0219169055905550565b611a26611bfc565b73ffffffffffffffffffffffffffffffffffffffff16611a44610fe8565b73ffffffffffffffffffffffffffffffffffffffff1614611a9a576040517f08c379a0000000000000000000000000000000000000000000000000000000008152600401611a91906127a6565b60405180910390fd5b565b60008060009054906101000a900473ffffffffffffffffffffffffffffffffffffffff169050816000806101000a81548173ffffffffffffffffffffffffffffffffffffffff021916908373ffffffffffffffffffffffffffffffffffffffff1602179055508173ffffffffffffffffffffffffffffffffffffffff168173ffffffffffffffffffffffffffffffffffffffff167f8be0079c531659141344cd1fd0a4f28419497f9722a3daafe3b4186f6b6457e060405160405180910390a35050565b611bf88282604051602401611b769291906127c6565b6040516020818303038152906040527fb60e72cc000000000000000000000000000000000000000000000000000000007bffffffffffffffffffffffffffffffffffffffffffffffffffffffff19166020820180517bffffffffffffffffffffffffffffffffffffffffffffffffffffffff8381831617835250505050611c04565b5050565b600033905090565b60008151905060006a636f6e736f6c652e6c6f679050602083016000808483855afa5050505050565b600080fd5b6000819050919050565b611c4581611c32565b8114611c5057600080fd5b50565b600081359050611c6281611c3c565b92915050565b600060208284031215611c7e57611c7d611c2d565b5b6000611c8c84828501611c53565b91505092915050565b60008060408385031215611cac57611cab611c2d565b5b6000611cba85828601611c53565b9250506020611ccb85828601611c53565b9150509250929050565b600080600060608486031215611cee57611ced611c2d565b5b6000611cfc86828701611c53565b9350506020611d0d86828701611c53565b9250506040611d1e86828701611c53565b9150509250925092565b600073ffffffffffffffffffffffffffffffffffffffff82169050919050565b6000611d5382611d28565b9050919050565b611d6381611d48565b82525050565b6000602082019050611d7e6000830184611d5a565b92915050565b611d8d81611c32565b82525050565b6000604082019050611da86000830185611d84565b611db56020830184611d84565b9392505050565b611dc581611d48565b8114611dd057600080fd5b50565b600081359050611de281611dbc565b92915050565b600060208284031215611dfe57611dfd611c2d565b5b6000611e0c84828501611dd3565b91505092915050565b600081519050919050565b600082825260208201905092915050565b60005b83811015611e4f578082015181840152602081019050611e34565b60008484015250505050565b6000601f19601f8301169050919050565b6000611e7782611e15565b611e818185611e20565b9350611e91818560208601611e31565b611e9a81611e5b565b840191505092915050565b60006020820190508181036000830152611ebf8184611e6c565b905092915050565b6000819050919050565b6000611eec611ee7611ee284611d28565b611ec7565b611d28565b9050919050565b6000611efe82611ed1565b9050919050565b6000611f1082611ef3565b9050919050565b611f2081611f05565b82525050565b6000602082019050611f3b6000830184611f17565b92915050565b7f4e487b7100000000000000000000000000000000000000000000000000000000600052601160045260246000fd5b6000611f7b82611c32565b9150611f8683611c32565b9250828201905080821115611f9e57611f9d611f41565b5b92915050565b7f4e487b7100000000000000000000000000000000000000000000000000000000600052601260045260246000fd5b6000611fde82611c32565b9150611fe983611c32565b925082611ff957611ff8611fa4565b5b828204905092915050565b600061200f82611c32565b915061201a83611c32565b925082820390508181111561203257612031611f41565b5b92915050565b600060408201905061204d6000830185611d5a565b61205a6020830184611d84565b9392505050565b60008115159050919050565b61207681612061565b811461208157600080fd5b50565b6000815190506120938161206d565b92915050565b6000602082840312156120af576120ae611c2d565b5b60006120bd84828501612084565b91505092915050565b60006120d182611c32565b91506120dc83611c32565b92508282026120ea81611c32565b9150828204841483151761210157612100611f41565b5b5092915050565b7f4e487b7100000000000000000000000000000000000000000000000000000000600052603260045260246000fd5b600061214282611c32565b91507fffffffffffffffffffffffffffffffffffffffffffffffffffffffffffffffff820361217457612173611f41565b5b600182019050919050565b7f546f6b656e20726573657276657320776173206e6f7420300000000000000000600082015250565b60006121b5601883611e20565b91506121c08261217f565b602082019050919050565b600060208201905081810360008301526121e4816121a8565b9050919050565b7f45544820726573657276657320776173206e6f7420302e000000000000000000600082015250565b6000612221601783611e20565b915061222c826121eb565b602082019050919050565b6000602082019050818103600083015261225081612214565b9050919050565b7f4e6565642065746820746f2063726561746520706f6f6c2e0000000000000000600082015250565b600061228d601883611e20565b915061229882612257565b602082019050919050565b600060208201905081810360008301526122bc81612280565b9050919050565b6000815190506122d281611c3c565b92915050565b6000602082840312156122ee576122ed611c2d565b5b60006122fc848285016122c3565b91505092915050565b7f4e6f74206861766520656e6f75676820746f6b656e7320746f2063726561746560008201527f2074686520706f6f6c0000000000000000000000000000000000000000000000602082015250565b6000612361602983611e20565b915061236c82612305565b604082019050919050565b6000602082019050818103600083015261239081612354565b9050919050565b7f4e65656420746f6b656e7320746f2063726561746520706f6f6c2e0000000000600082015250565b60006123cd601b83611e20565b91506123d882612397565b602082019050919050565b600060208201905081810360008301526123fc816123c0565b9050919050565b60006060820190506124186000830186611d5a565b6124256020830185611d5a565b6124326040830184611d84565b949350505050565b7f696e73756666696369656e74207374616b650000000000000000000000000000600082015250565b6000612470601283611e20565b915061247b8261243a565b602082019050919050565b6000602082019050818103600083015261249f81612463565b9050919050565b7f696e7375666669656e7420746f6b656e2062616c616e63650000000000000000600082015250565b60006124dc601883611e20565b91506124e7826124a6565b602082019050919050565b6000602082019050818103600083015261250b816124cf565b9050919050565b60006040820190506125276000830185611d5a565b6125346020830184611d5a565b9392505050565b7f696e7375666669656e7420746f6b656e20616c6c6f77616e6365000000000000600082015250565b6000612571601a83611e20565b915061257c8261253b565b602082019050919050565b600060208201905081810360008301526125a081612564565b9050919050565b7f4f776e61626c653a206e6577206f776e657220697320746865207a65726f206160008201527f6464726573730000000000000000000000000000000000000000000000000000602082015250565b6000612603602683611e20565b915061260e826125a7565b604082019050919050565b60006020820190508181036000830152612632816125f6565b9050919050565b7f4e487b7100000000000000000000000000000000000000000000000000000000600052602260045260246000fd5b6000600282049050600182168061268057607f821691505b60208210810361269357612692612639565b5b50919050565b7f73706563696669656420696e646578206973206c6172676572207468616e207460008201527f6865206e756d626572206f66206c707300000000000000000000000000000000602082015250565b60006126f5603083611e20565b915061270082612699565b604082019050919050565b60006020820190508181036000830152612724816126e8565b9050919050565b7f4e487b7100000000000000000000000000000000000000000000000000000000600052603160045260246000fd5b7f4f776e61626c653a2063616c6c6572206973206e6f7420746865206f776e6572600082015250565b6000612790602083611e20565b915061279b8261275a565b602082019050919050565b600060208201905081810360008301526127bf81612783565b9050919050565b600060408201905081810360008301526127e08185611e6c565b90506127ef6020830184611d84565b939250505056fea2646970667358221220cf7f8cddb3c7b485f233e69f2fc2aa37ff9b855ae54238f16f8e4aee98f4073d64736f6c63430008110033",
  "linkReferences": {},
  "deployedLinkReferences": {}
}