{
  "_format": "hh-sol-artifact-1",
  "contractName": "TokenExchange",
  "sourceName": "contracts/exchange.sol",
  "abi": [
    {
      "inputs": [],
      "stateMutability": "nonpayable",
      "type": "constructor"
    },
    {
      "anonymous": false,
      "inputs": [
        {
          "indexed": true,
          "internalType": "address",
          "name": "previousOwner",
          "type": "address"
        },
        {
          "indexed": true,
          "internalType": "address",
          "name": "newOwner",
          "type": "address"
        }
      ],
      "name": "OwnershipTransferred",
      "type": "event"
    },
    {
      "inputs": [
        {
          "internalType": "uint256",
          "name": "max_exchange_rate",
          "type": "uint256"
        },
        {
          "internalType": "uint256",
          "name": "min_exchange_rate",
          "type": "uint256"
        }
      ],
      "name": "addLiquidity",
      "outputs": [],
      "stateMutability": "payable",
      "type": "function"
    },
    {
      "inputs": [
        {
          "internalType": "uint256",
          "name": "amountTokens",
          "type": "uint256"
        }
      ],
      "name": "createPool",
      "outputs": [],
      "stateMutability": "payable",
      "type": "function"
    },
    {
      "inputs": [],
      "name": "exchange_name",
      "outputs": [
        {
          "internalType": "string",
          "name": "",
          "type": "string"
        }
      ],
      "stateMutability": "view",
      "type": "function"
    },
    {
      "inputs": [],
      "name": "getSwapFee",
      "outputs": [
        {
          "internalType": "uint256",
          "name": "",
          "type": "uint256"
        },
        {
          "internalType": "uint256",
          "name": "",
          "type": "uint256"
        }
      ],
      "stateMutability": "view",
      "type": "function"
    },
    {
      "inputs": [],
      "name": "owner",
      "outputs": [
        {
          "internalType": "address",
          "name": "",
          "type": "address"
        }
      ],
      "stateMutability": "view",
      "type": "function"
    },
    {
      "inputs": [
        {
          "internalType": "uint256",
          "name": "max_exchange_rate",
          "type": "uint256"
        },
        {
          "internalType": "uint256",
          "name": "min_exchange_rate",
          "type": "uint256"
        }
      ],
      "name": "removeAllLiquidity",
      "outputs": [],
      "stateMutability": "payable",
      "type": "function"
    },
    {
      "inputs": [
        {
          "internalType": "uint256",
          "name": "amountETH",
          "type": "uint256"
        },
        {
          "internalType": "uint256",
          "name": "max_exchange_rate",
          "type": "uint256"
        },
        {
          "internalType": "uint256",
          "name": "min_exchange_rate",
          "type": "uint256"
        }
      ],
      "name": "removeLiquidity",
      "outputs": [],
      "stateMutability": "payable",
      "type": "function"
    },
    {
      "inputs": [],
      "name": "renounceOwnership",
      "outputs": [],
      "stateMutability": "nonpayable",
      "type": "function"
    },
    {
      "inputs": [
        {
          "internalType": "uint256",
          "name": "max_exchange_rate",
          "type": "uint256"
        }
      ],
      "name": "swapETHForTokens",
      "outputs": [],
      "stateMutability": "payable",
      "type": "function"
    },
    {
      "inputs": [
        {
          "internalType": "uint256",
          "name": "amountTokens",
          "type": "uint256"
        },
        {
          "internalType": "uint256",
          "name": "max_exchange_rate",
          "type": "uint256"
        }
      ],
      "name": "swapTokensForETH",
      "outputs": [],
      "stateMutability": "payable",
      "type": "function"
    },
    {
      "inputs": [],
      "name": "token",
      "outputs": [
        {
          "internalType": "contract Token",
          "name": "",
          "type": "address"
        }
      ],
      "stateMutability": "view",
      "type": "function"
    },
    {
      "inputs": [
        {
          "internalType": "address",
          "name": "newOwner",
          "type": "address"
        }
      ],
      "name": "transferOwnership",
      "outputs": [],
      "stateMutability": "nonpayable",
      "type": "function"
    }
  ],
  "bytecode": "0x608060405260405180602001604052806000815250600190816200002491906200046b565b50735fbdb2315678afecb367f032d93f642f64180aa3600260006101000a81548173ffffffffffffffffffffffffffffffffffffffff021916908373ffffffffffffffffffffffffffffffffffffffff160217905550600260009054906101000a900473ffffffffffffffffffffffffffffffffffffffff16600360006101000a81548173ffffffffffffffffffffffffffffffffffffffff021916908373ffffffffffffffffffffffffffffffffffffffff1602179055506000600455600060055560006008556000600955348015620000fe57600080fd5b506200011f620001136200012560201b60201c565b6200012d60201b60201c565b62000552565b600033905090565b60008060009054906101000a900473ffffffffffffffffffffffffffffffffffffffff169050816000806101000a81548173ffffffffffffffffffffffffffffffffffffffff021916908373ffffffffffffffffffffffffffffffffffffffff1602179055508173ffffffffffffffffffffffffffffffffffffffff168173ffffffffffffffffffffffffffffffffffffffff167f8be0079c531659141344cd1fd0a4f28419497f9722a3daafe3b4186f6b6457e060405160405180910390a35050565b600081519050919050565b7f4e487b7100000000000000000000000000000000000000000000000000000000600052604160045260246000fd5b7f4e487b7100000000000000000000000000000000000000000000000000000000600052602260045260246000fd5b600060028204905060018216806200027357607f821691505b6020821081036200028957620002886200022b565b5b50919050565b60008190508160005260206000209050919050565b60006020601f8301049050919050565b600082821b905092915050565b600060088302620002f37fffffffffffffffffffffffffffffffffffffffffffffffffffffffffffffffff82620002b4565b620002ff8683620002b4565b95508019841693508086168417925050509392505050565b6000819050919050565b6000819050919050565b60006200034c62000346620003408462000317565b62000321565b62000317565b9050919050565b6000819050919050565b62000368836200032b565b62000380620003778262000353565b848454620002c1565b825550505050565b600090565b6200039762000388565b620003a48184846200035d565b505050565b5b81811015620003cc57620003c06000826200038d565b600181019050620003aa565b5050565b601f8211156200041b57620003e5816200028f565b620003f084620002a4565b8101602085101562000400578190505b620004186200040f85620002a4565b830182620003a9565b50505b505050565b600082821c905092915050565b6000620004406000198460080262000420565b1980831691505092915050565b60006200045b83836200042d565b9150826002028217905092915050565b6200047682620001f1565b67ffffffffffffffff811115620004925762000491620001fc565b5b6200049e82546200025a565b620004ab828285620003d0565b600060209050601f831160018114620004e35760008415620004ce578287015190505b620004da85826200044d565b8655506200054a565b601f198416620004f3866200028f565b60005b828110156200051d57848901518255600182019150602085019450602081019050620004f6565b868310156200053d578489015162000539601f8916826200042d565b8355505b6001600288020188555050505b505050505050565b6128d280620005626000396000f3fe6080604052600436106100a75760003560e01c80639cd441da116100645780639cd441da1461015e578063a22280a61461017a578063d4cadf6814610196578063f2fde38b146101c2578063f694f7d1146101eb578063fc0c546a14610216576100a7565b80632eab2841146100ac57806358ad6de4146100c8578063715018a6146100e45780638259e6a0146100fb578063857620e1146101175780638da5cb5b14610133575b600080fd5b6100c660048036038101906100c19190611d0e565b610241565b005b6100e260048036038101906100dd9190611d3b565b610349565b005b3480156100f057600080fd5b506100f9610827565b005b61011560048036038101906101109190611d0e565b61083b565b005b610131600480360381019061012c9190611d7b565b610bdb565b005b34801561013f57600080fd5b50610148610fe8565b6040516101559190611e0f565b60405180910390f35b61017860048036038101906101739190611d3b565b611011565b005b610194600480360381019061018f9190611d3b565b6116f9565b005b3480156101a257600080fd5b506101ab6117a3565b6040516101b9929190611e39565b60405180910390f35b3480156101ce57600080fd5b506101e960048036038101906101e49190611e8e565b6117b4565b005b3480156101f757600080fd5b50610200611837565b60405161020d9190611f4b565b60405180910390f35b34801561022257600080fd5b5061022b6118c5565b6040516102389190611fcc565b60405180910390f35b600080349050806005546102559190612016565b600a546102629190612079565b60045461026f91906120aa565b915080600560008282546102839190612016565b92505081905550816004600082825461029c91906120aa565b92505081905550600360009054906101000a900473ffffffffffffffffffffffffffffffffffffffff1673ffffffffffffffffffffffffffffffffffffffff1663a9059cbb33846040518363ffffffff1660e01b81526004016103009291906120de565b6020604051808303816000875af115801561031f573d6000803e3d6000fd5b505050506040513d601f19601f82011682018060405250810190610343919061213f565b50505050565b6000612710600660003373ffffffffffffffffffffffffffffffffffffffff1673ffffffffffffffffffffffffffffffffffffffff1681526020019081526020016000205460055461039b919061216c565b6103a59190612079565b90506000612710600660003373ffffffffffffffffffffffffffffffffffffffff1673ffffffffffffffffffffffffffffffffffffffff168152602001908152602001600020546004546103f9919061216c565b6104039190612079565b90506000600660003373ffffffffffffffffffffffffffffffffffffffff1673ffffffffffffffffffffffffffffffffffffffff1681526020019081526020016000205461271061045491906120aa565b905060005b600780549050811015610602573373ffffffffffffffffffffffffffffffffffffffff1660078281548110610491576104906121ae565b5b9060005260206000200160009054906101000a900473ffffffffffffffffffffffffffffffffffffffff1673ffffffffffffffffffffffffffffffffffffffff16146105ef578161271060066000600785815481106104f3576104f26121ae565b5b9060005260206000200160009054906101000a900473ffffffffffffffffffffffffffffffffffffffff1673ffffffffffffffffffffffffffffffffffffffff1673ffffffffffffffffffffffffffffffffffffffff16815260200190815260200160002054610563919061216c565b61056d9190612079565b6006600060078481548110610585576105846121ae565b5b9060005260206000200160009054906101000a900473ffffffffffffffffffffffffffffffffffffffff1673ffffffffffffffffffffffffffffffffffffffff1673ffffffffffffffffffffffffffffffffffffffff168152602001908152602001600020819055505b80806105fa906121dd565b915050610459565b503373ffffffffffffffffffffffffffffffffffffffff166108fc849081150290604051600060405180830381858888f19350505050158015610649573d6000803e3d6000fd5b50600360009054906101000a900473ffffffffffffffffffffffffffffffffffffffff1673ffffffffffffffffffffffffffffffffffffffff1663a9059cbb33846040518363ffffffff1660e01b81526004016106a79291906120de565b6020604051808303816000875af11580156106c6573d6000803e3d6000fd5b505050506040513d601f19601f820116820180604052508101906106ea919061213f565b5082600560008282546106fd91906120aa565b92505081905550816004600082825461071691906120aa565b9250508190555060045460055461072d919061216c565b600a819055506000600660003373ffffffffffffffffffffffffffffffffffffffff1673ffffffffffffffffffffffffffffffffffffffff1681526020019081526020016000208190555060005b60078054905081101561081e573373ffffffffffffffffffffffffffffffffffffffff16600782815481106107b3576107b26121ae565b5b9060005260206000200160009054906101000a900473ffffffffffffffffffffffffffffffffffffffff1673ffffffffffffffffffffffffffffffffffffffff160361080b57610802816118eb565b50505050610823565b8080610816906121dd565b91505061077b565b505050505b5050565b61082f611a28565b6108396000611aa6565b565b610843611a28565b6108826040518060400160405280600c81526020017f616d6f756e74546f6b656e73000000000000000000000000000000000000000081525082611b6a565b6000600454146108c7576040517f08c379a00000000000000000000000000000000000000000000000000000000081526004016108be90612271565b60405180910390fd5b60006005541461090c576040517f08c379a0000000000000000000000000000000000000000000000000000000008152600401610903906122dd565b60405180910390fd5b6000341161094f576040517f08c379a000000000000000000000000000000000000000000000000000000000815260040161094690612349565b60405180910390fd5b6000600360009054906101000a900473ffffffffffffffffffffffffffffffffffffffff1673ffffffffffffffffffffffffffffffffffffffff166370a08231336040518263ffffffff1660e01b81526004016109ac9190611e0f565b602060405180830381865afa1580156109c9573d6000803e3d6000fd5b505050506040513d601f19601f820116820180604052508101906109ed919061237e565b905080821115610a32576040517f08c379a0000000000000000000000000000000000000000000000000000000008152600401610a299061241d565b60405180910390fd5b60008211610a75576040517f08c379a0000000000000000000000000000000000000000000000000000000008152600401610a6c90612489565b60405180910390fd5b600360009054906101000a900473ffffffffffffffffffffffffffffffffffffffff1673ffffffffffffffffffffffffffffffffffffffff166323b872dd3330856040518463ffffffff1660e01b8152600401610ad4939291906124a9565b6020604051808303816000875af1158015610af3573d6000803e3d6000fd5b505050506040513d601f19601f82011682018060405250810190610b17919061213f565b50600360009054906101000a900473ffffffffffffffffffffffffffffffffffffffff1673ffffffffffffffffffffffffffffffffffffffff166370a08231306040518263ffffffff1660e01b8152600401610b739190611e0f565b602060405180830381865afa158015610b90573d6000803e3d6000fd5b505050506040513d601f19601f82011682018060405250810190610bb4919061237e565b60048190555034600581905550600554600454610bd1919061216c565b600a819055505050565b600060045460055485610bee919061216c565b610bf89190612079565b9050600060055461271086610c0d919061216c565b610c179190612079565b905080600660003373ffffffffffffffffffffffffffffffffffffffff1673ffffffffffffffffffffffffffffffffffffffff1681526020019081526020016000206000828254610c6891906120aa565b925050819055506000600660003373ffffffffffffffffffffffffffffffffffffffff1673ffffffffffffffffffffffffffffffffffffffff1681526020019081526020016000205411610cf1576040517f08c379a0000000000000000000000000000000000000000000000000000000008152600401610ce89061252c565b60405180910390fd5b600081612710610d0191906120aa565b905060005b600780549050811015610eaf573373ffffffffffffffffffffffffffffffffffffffff1660078281548110610d3e57610d3d6121ae565b5b9060005260206000200160009054906101000a900473ffffffffffffffffffffffffffffffffffffffff1673ffffffffffffffffffffffffffffffffffffffff1614610e9c57816127106006600060078581548110610da057610d9f6121ae565b5b9060005260206000200160009054906101000a900473ffffffffffffffffffffffffffffffffffffffff1673ffffffffffffffffffffffffffffffffffffffff1673ffffffffffffffffffffffffffffffffffffffff16815260200190815260200160002054610e10919061216c565b610e1a9190612079565b6006600060078481548110610e3257610e316121ae565b5b9060005260206000200160009054906101000a900473ffffffffffffffffffffffffffffffffffffffff1673ffffffffffffffffffffffffffffffffffffffff1673ffffffffffffffffffffffffffffffffffffffff168152602001908152602001600020819055505b8080610ea7906121dd565b915050610d06565b503373ffffffffffffffffffffffffffffffffffffffff166108fc879081150290604051600060405180830381858888f19350505050158015610ef6573d6000803e3d6000fd5b50600360009054906101000a900473ffffffffffffffffffffffffffffffffffffffff1673ffffffffffffffffffffffffffffffffffffffff1663a9059cbb33856040518363ffffffff1660e01b8152600401610f549291906120de565b6020604051808303816000875af1158015610f73573d6000803e3d6000fd5b505050506040513d601f19601f82011682018060405250810190610f97919061213f565b508560056000828254610faa91906120aa565b925050819055508260046000828254610fc391906120aa565b92505081905550600454600554610fda919061216c565b600a81905550505050505050565b60008060009054906101000a900473ffffffffffffffffffffffffffffffffffffffff16905090565b60008034915060045460055483611028919061216c565b6110329190612079565b905061103e8282611c06565b3373ffffffffffffffffffffffffffffffffffffffff166108fc839081150290604051600060405180830381858888f19350505050158015611084573d6000803e3d6000fd5b50600360009054906101000a900473ffffffffffffffffffffffffffffffffffffffff1673ffffffffffffffffffffffffffffffffffffffff1663a9059cbb33836040518363ffffffff1660e01b81526004016110e29291906120de565b6020604051808303816000875af1158015611101573d6000803e3d6000fd5b505050506040513d601f19601f82011682018060405250810190611125919061213f565b5081600560008282546111389190612016565b9250508190555080600460008282546111519190612016565b92505081905550600454600554611168919061216c565b600a81905550600060055483612710611181919061216c565b61118b9190612079565b905060006001905060005b600780549050811015611484573373ffffffffffffffffffffffffffffffffffffffff16600782815481106111ce576111cd6121ae565b5b9060005260206000200160009054906101000a900473ffffffffffffffffffffffffffffffffffffffff1673ffffffffffffffffffffffffffffffffffffffff160361134c5760009150826005548660055461122a91906120aa565b6006600060078681548110611242576112416121ae565b5b9060005260206000200160009054906101000a900473ffffffffffffffffffffffffffffffffffffffff1673ffffffffffffffffffffffffffffffffffffffff1673ffffffffffffffffffffffffffffffffffffffff168152602001908152602001600020546112b2919061216c565b6112bc9190612079565b6112c69190612016565b60066000600784815481106112de576112dd6121ae565b5b9060005260206000200160009054906101000a900473ffffffffffffffffffffffffffffffffffffffff1673ffffffffffffffffffffffffffffffffffffffff1673ffffffffffffffffffffffffffffffffffffffff16815260200190815260200160002081905550611471565b6005548560055461135d91906120aa565b6006600060078581548110611375576113746121ae565b5b9060005260206000200160009054906101000a900473ffffffffffffffffffffffffffffffffffffffff1673ffffffffffffffffffffffffffffffffffffffff1673ffffffffffffffffffffffffffffffffffffffff168152602001908152602001600020546113e5919061216c565b6113ef9190612079565b6006600060078481548110611407576114066121ae565b5b9060005260206000200160009054906101000a900473ffffffffffffffffffffffffffffffffffffffff1673ffffffffffffffffffffffffffffffffffffffff1673ffffffffffffffffffffffffffffffffffffffff168152602001908152602001600020819055505b808061147c906121dd565b915050611196565b508015611533576007339080600181540180825580915050600190039060005260206000200160009091909190916101000a81548173ffffffffffffffffffffffffffffffffffffffff021916908373ffffffffffffffffffffffffffffffffffffffff16021790555081600660003373ffffffffffffffffffffffffffffffffffffffff1673ffffffffffffffffffffffffffffffffffffffff168152602001908152602001600020819055505b82600360009054906101000a900473ffffffffffffffffffffffffffffffffffffffff1673ffffffffffffffffffffffffffffffffffffffff166370a08231336040518263ffffffff1660e01b815260040161158f9190611e0f565b602060405180830381865afa1580156115ac573d6000803e3d6000fd5b505050506040513d601f19601f820116820180604052508101906115d0919061237e565b1015611611576040517f08c379a000000000000000000000000000000000000000000000000000000000815260040161160890612598565b60405180910390fd5b82600360009054906101000a900473ffffffffffffffffffffffffffffffffffffffff1673ffffffffffffffffffffffffffffffffffffffff1663dd62ed3e33306040518363ffffffff1660e01b815260040161166f9291906125b8565b602060405180830381865afa15801561168c573d6000803e3d6000fd5b505050506040513d601f19601f820116820180604052508101906116b0919061237e565b10156116f1576040517f08c379a00000000000000000000000000000000000000000000000000000000081526004016116e89061262d565b60405180910390fd5b505050505050565b6000826004546117099190612016565b600a546117169190612079565b60055461172391906120aa565b9050806005600082825461173791906120aa565b9250508190555082600460008282546117509190612016565b925050819055503373ffffffffffffffffffffffffffffffffffffffff166108fc829081150290604051600060405180830381858888f1935050505015801561179d573d6000803e3d6000fd5b50505050565b600080600854600954915091509091565b6117bc611a28565b600073ffffffffffffffffffffffffffffffffffffffff168173ffffffffffffffffffffffffffffffffffffffff160361182b576040517f08c379a0000000000000000000000000000000000000000000000000000000008152600401611822906126bf565b60405180910390fd5b61183481611aa6565b50565b600180546118449061270e565b80601f01602080910402602001604051908101604052809291908181526020018280546118709061270e565b80156118bd5780601f10611892576101008083540402835291602001916118bd565b820191906000526020600020905b8154815290600101906020018083116118a057829003601f168201915b505050505081565b600360009054906101000a900473ffffffffffffffffffffffffffffffffffffffff1681565b6007805490508110611932576040517f08c379a0000000000000000000000000000000000000000000000000000000008152600401611929906127b1565b60405180910390fd5b6007600160078054905061194691906120aa565b81548110611957576119566121ae565b5b9060005260206000200160009054906101000a900473ffffffffffffffffffffffffffffffffffffffff1660078281548110611996576119956121ae565b5b9060005260206000200160006101000a81548173ffffffffffffffffffffffffffffffffffffffff021916908373ffffffffffffffffffffffffffffffffffffffff16021790555060078054806119f0576119ef6127d1565b5b6001900381819060005260206000200160006101000a81549073ffffffffffffffffffffffffffffffffffffffff0219169055905550565b611a30611ca2565b73ffffffffffffffffffffffffffffffffffffffff16611a4e610fe8565b73ffffffffffffffffffffffffffffffffffffffff1614611aa4576040517f08c379a0000000000000000000000000000000000000000000000000000000008152600401611a9b9061284c565b60405180910390fd5b565b60008060009054906101000a900473ffffffffffffffffffffffffffffffffffffffff169050816000806101000a81548173ffffffffffffffffffffffffffffffffffffffff021916908373ffffffffffffffffffffffffffffffffffffffff1602179055508173ffffffffffffffffffffffffffffffffffffffff168173ffffffffffffffffffffffffffffffffffffffff167f8be0079c531659141344cd1fd0a4f28419497f9722a3daafe3b4186f6b6457e060405160405180910390a35050565b611c028282604051602401611b8092919061286c565b6040516020818303038152906040527fb60e72cc000000000000000000000000000000000000000000000000000000007bffffffffffffffffffffffffffffffffffffffffffffffffffffffff19166020820180517bffffffffffffffffffffffffffffffffffffffffffffffffffffffff8381831617835250505050611caa565b5050565b611c9e8282604051602401611c1c929190611e39565b6040516020818303038152906040527ff666715a000000000000000000000000000000000000000000000000000000007bffffffffffffffffffffffffffffffffffffffffffffffffffffffff19166020820180517bffffffffffffffffffffffffffffffffffffffffffffffffffffffff8381831617835250505050611caa565b5050565b600033905090565b60008151905060006a636f6e736f6c652e6c6f679050602083016000808483855afa5050505050565b600080fd5b6000819050919050565b611ceb81611cd8565b8114611cf657600080fd5b50565b600081359050611d0881611ce2565b92915050565b600060208284031215611d2457611d23611cd3565b5b6000611d3284828501611cf9565b91505092915050565b60008060408385031215611d5257611d51611cd3565b5b6000611d6085828601611cf9565b9250506020611d7185828601611cf9565b9150509250929050565b600080600060608486031215611d9457611d93611cd3565b5b6000611da286828701611cf9565b9350506020611db386828701611cf9565b9250506040611dc486828701611cf9565b9150509250925092565b600073ffffffffffffffffffffffffffffffffffffffff82169050919050565b6000611df982611dce565b9050919050565b611e0981611dee565b82525050565b6000602082019050611e246000830184611e00565b92915050565b611e3381611cd8565b82525050565b6000604082019050611e4e6000830185611e2a565b611e5b6020830184611e2a565b9392505050565b611e6b81611dee565b8114611e7657600080fd5b50565b600081359050611e8881611e62565b92915050565b600060208284031215611ea457611ea3611cd3565b5b6000611eb284828501611e79565b91505092915050565b600081519050919050565b600082825260208201905092915050565b60005b83811015611ef5578082015181840152602081019050611eda565b60008484015250505050565b6000601f19601f8301169050919050565b6000611f1d82611ebb565b611f278185611ec6565b9350611f37818560208601611ed7565b611f4081611f01565b840191505092915050565b60006020820190508181036000830152611f658184611f12565b905092915050565b6000819050919050565b6000611f92611f8d611f8884611dce565b611f6d565b611dce565b9050919050565b6000611fa482611f77565b9050919050565b6000611fb682611f99565b9050919050565b611fc681611fab565b82525050565b6000602082019050611fe16000830184611fbd565b92915050565b7f4e487b7100000000000000000000000000000000000000000000000000000000600052601160045260246000fd5b600061202182611cd8565b915061202c83611cd8565b925082820190508082111561204457612043611fe7565b5b92915050565b7f4e487b7100000000000000000000000000000000000000000000000000000000600052601260045260246000fd5b600061208482611cd8565b915061208f83611cd8565b92508261209f5761209e61204a565b5b828204905092915050565b60006120b582611cd8565b91506120c083611cd8565b92508282039050818111156120d8576120d7611fe7565b5b92915050565b60006040820190506120f36000830185611e00565b6121006020830184611e2a565b9392505050565b60008115159050919050565b61211c81612107565b811461212757600080fd5b50565b60008151905061213981612113565b92915050565b60006020828403121561215557612154611cd3565b5b60006121638482850161212a565b91505092915050565b600061217782611cd8565b915061218283611cd8565b925082820261219081611cd8565b915082820484148315176121a7576121a6611fe7565b5b5092915050565b7f4e487b7100000000000000000000000000000000000000000000000000000000600052603260045260246000fd5b60006121e882611cd8565b91507fffffffffffffffffffffffffffffffffffffffffffffffffffffffffffffffff820361221a57612219611fe7565b5b600182019050919050565b7f546f6b656e20726573657276657320776173206e6f7420300000000000000000600082015250565b600061225b601883611ec6565b915061226682612225565b602082019050919050565b6000602082019050818103600083015261228a8161224e565b9050919050565b7f45544820726573657276657320776173206e6f7420302e000000000000000000600082015250565b60006122c7601783611ec6565b91506122d282612291565b602082019050919050565b600060208201905081810360008301526122f6816122ba565b9050919050565b7f4e6565642065746820746f2063726561746520706f6f6c2e0000000000000000600082015250565b6000612333601883611ec6565b915061233e826122fd565b602082019050919050565b6000602082019050818103600083015261236281612326565b9050919050565b60008151905061237881611ce2565b92915050565b60006020828403121561239457612393611cd3565b5b60006123a284828501612369565b91505092915050565b7f4e6f74206861766520656e6f75676820746f6b656e7320746f2063726561746560008201527f2074686520706f6f6c0000000000000000000000000000000000000000000000602082015250565b6000612407602983611ec6565b9150612412826123ab565b604082019050919050565b60006020820190508181036000830152612436816123fa565b9050919050565b7f4e65656420746f6b656e7320746f2063726561746520706f6f6c2e0000000000600082015250565b6000612473601b83611ec6565b915061247e8261243d565b602082019050919050565b600060208201905081810360008301526124a281612466565b9050919050565b60006060820190506124be6000830186611e00565b6124cb6020830185611e00565b6124d86040830184611e2a565b949350505050565b7f696e73756666696369656e74207374616b650000000000000000000000000000600082015250565b6000612516601283611ec6565b9150612521826124e0565b602082019050919050565b6000602082019050818103600083015261254581612509565b9050919050565b7f696e7375666669656e7420746f6b656e2062616c616e63650000000000000000600082015250565b6000612582601883611ec6565b915061258d8261254c565b602082019050919050565b600060208201905081810360008301526125b181612575565b9050919050565b60006040820190506125cd6000830185611e00565b6125da6020830184611e00565b9392505050565b7f696e7375666669656e7420746f6b656e20616c6c6f77616e6365000000000000600082015250565b6000612617601a83611ec6565b9150612622826125e1565b602082019050919050565b600060208201905081810360008301526126468161260a565b9050919050565b7f4f776e61626c653a206e6577206f776e657220697320746865207a65726f206160008201527f6464726573730000000000000000000000000000000000000000000000000000602082015250565b60006126a9602683611ec6565b91506126b48261264d565b604082019050919050565b600060208201905081810360008301526126d88161269c565b9050919050565b7f4e487b7100000000000000000000000000000000000000000000000000000000600052602260045260246000fd5b6000600282049050600182168061272657607f821691505b602082108103612739576127386126df565b5b50919050565b7f73706563696669656420696e646578206973206c6172676572207468616e207460008201527f6865206e756d626572206f66206c707300000000000000000000000000000000602082015250565b600061279b603083611ec6565b91506127a68261273f565b604082019050919050565b600060208201905081810360008301526127ca8161278e565b9050919050565b7f4e487b7100000000000000000000000000000000000000000000000000000000600052603160045260246000fd5b7f4f776e61626c653a2063616c6c6572206973206e6f7420746865206f776e6572600082015250565b6000612836602083611ec6565b915061284182612800565b602082019050919050565b6000602082019050818103600083015261286581612829565b9050919050565b600060408201905081810360008301526128868185611f12565b90506128956020830184611e2a565b939250505056fea26469706673582212201496b1db01748ba74eb4cc50e15856daedd7dffcaf148f6077ca9592079005f164736f6c63430008110033",
  "linkReferences": {},
  "deployedLinkReferences": {}
}